:020000040000FA
:100000000C945D000C9485000C9485000C94850084
:100010000C9485000C9485000C9485000C9485004C
:100020000C9485000C9485000C9485000C941D01A3
:100030000C9485000C9485000C9485000C9485002C
:100040000C94D3000C9485000C9485000C948500CE
:100050000C9485000C9485000C9485000C9485000C
:100060000C9485000C94850000000008000201003B
:100070000003040700000000000000000000000072
:10008000250028002B0000000000240027002A0083
:10009000040404040404040402020202020203032E
:1000A0000303030301020408102040800102040836
:1000B0001020010204081020E20211241FBECFEF1D
:1000C000D8E0DEBFCDBF11E0A0E0B1E0E8EDF6E0A2
:1000D00002C005900D92A030B107D9F721E0A0E051
:1000E000B1E001C01D92A233B207E1F710E0CDE507
:1000F000D0E004C02197FE010E946403CC35D107F3
:10010000C9F70E94D9010C946A030C94000090E096
:10011000FC01E859FF4F2491FC01EC55FF4F34914D
:10012000FC01E057FF4FE491EE23C9F0222339F0A0
:10013000233001F1A8F4213019F1223029F1F0E047
:10014000EE0FFF1FE458FF4FA591B4918FB7F894BD
:10015000EC91611126C030953E233C938FBF0895EA
:100160002730A9F02830C9F0243049F78091800069
:100170008F7D03C0809180008F7780938000DFCFD8
:1001800084B58F7784BDDBCF84B58F7DFBCF809125
:10019000B0008F778093B000D2CF8091B0008F7D78
:1001A000F9CF3E2BDACF1F920F920FB60F92112488
:1001B0002F933F938F939F93AF93BF9380912E0183
:1001C00090912F01A0913001B091310130912D011A
:1001D00023E0230F2D3758F50196A11DB11D209363
:1001E0002D0180932E0190932F01A0933001B093A5
:1001F00031018091290190912A01A0912B01B091A8
:100200002C010196A11DB11D8093290190932A0113
:10021000A0932B01B0932C01BF91AF919F918F912F
:100220003F912F910F900FBE0F901F90189526E8C9
:10023000230F0296A11DB11DD2CF1F920F920FB6B0
:100240000F9211242F933F934F935F936F937F935C
:100250008F939F93AF93BF93CF93DF93EF93FF93CE
:1002600080910101C0910001D0E087FF24C010926D
:10027000850010928400809101018F5F80930101BD
:1002800080910101082E000C990B8C179D0724F416
:10029000809101018C30C4F180918400909185009F
:1002A000049680349C4908F47AC08091840090912F
:1002B0008500049676C080910101082E000C990BF0
:1002C0008C179D07C4F6E09101018E2FEE0F990B5C
:1002D000FC01EE0FFF1FE80FF91FEE5FFE4F80815C
:1002E00086FFC9CFE09101018E2FEE0F990BFC0123
:1002F000EE0FFF1FE80FF91FEE5FFE4F808160E0F9
:100300008F730E948700B7CF2091840030918500C1
:10031000E09101018E2FEE0F990BFC01EE0FFF1FF4
:10032000E80FF91FEE5FFE4F81819281820F931FCC
:100330009093890080938800E09101018E2FEE0F49
:10034000990BFC01EE0FFF1FE80FF91FEE5FFE4F48
:10035000808186FF11C0E09101018E2FEE0F990B75
:10036000FC01EE0FFF1FE80FF91FEE5FFE4F8081CB
:1003700061E08F730E948700FF91EF91DF91CF9131
:10038000BF91AF919F918F917F916F915F914F91AD
:100390003F912F910F900FBE0F901F90189580E402
:1003A0009CE990938900809388008FEF80930101EE
:1003B000E3CF789484B5826084BD84B5816084BDC8
:1003C00085B5826085BD85B5816085BD80916E00F3
:1003D000816080936E001092810080918100826024
:1003E0008093810080918100816080938100809161
:1003F00080008160809380008091B1008460809350
:10040000B1008091B00081608093B00080917A004B
:10041000846080937A0080917A00826080937A0071
:1004200080917A00816080937A0080917A00806860
:1004300080937A001092C100809126018C3008F0E0
:1004400068C0EDEAF0E02491E9E9F0E084918823C6
:1004500099F090E0880F991FFC01EA57FF4FA59192
:10046000B491FC01E458FF4F859194918FB7F894B3
:10047000EC91E22BEC938FBF80912601282F30E086
:10048000F901EE0FFF1FE20FF31FEE5FFE4F9081A9
:10049000907C9960908310922701109228012CE0A3
:1004A000622F0E945803829FB001112430E020E0A7
:1004B000AB01420F531FFA01EE0FFF1FE40FF51FB0
:1004C000EE5FFE4F908196FD16C02F5F3F4F2C30A0
:1004D000310571F781110FC01092800082E0809386
:1004E00081001092850010928400B19A80916F0073
:1004F000826080936F00E09126018E2F90E0FC01D6
:10050000EE0FFF1FE80FF91FEE5FFE4F8081806442
:100510008083F09026018091280108E512E0081BF5
:10052000110987FD1395000F111F000F111F8091F6
:100530002701C8E8D0E0C81BD10987FDD395CC0FAF
:10054000DD1FCC0FDD1F4E010D2E000CAA08BB08CD
:100550009801012E000C440B550B281939094A0942
:100560005B09ACE3B0E00E941C0324EB30E040E008
:1005700050E00E94FD02820E931EA41EB51E2BE0C9
:100580002F15C8F08C169D062CF0E80180169106F8
:100590000CF4E4012297CC0FDD1F2FB7F8948F2DB8
:1005A00090E0FC01EE0FFF1FE80FF91FEE5FFE4F1A
:1005B000D283C1832FBFC0E0D0E02097F1F30E9427
:1005C0000000FBCF809100018C3098F491E0980FEF
:1005D000909300018093260190E0FC01EE0FFF1F35
:1005E000E80FF91FEE5FFE4F88EB9BE0928381835B
:1005F00008958FEF809326010895052E97FB1EF432
:1006000000940E94140357FD07D00E94270307FCA3
:1006100003D04EF40C9414035095409530952195D9
:100620003F4F4F4F5F4F089590958095709561951E
:100630007F4F8F4F9F4F08950E944903A59F900DB4
:10064000B49F900DA49F800D911D11240895A1E2E7
:100650001A2EAA1BBB1BFD010DC0AA1FBB1FEE1F3C
:10066000FF1FA217B307E407F50720F0A21BB30B87
:10067000E40BF50B661F771F881F991F1A9469F703
:1006800060957095809590959B01AC01BD01CF015F
:100690000895A29FB001B39FC001A39F700D811D5B
:1006A0001124911DB29F700D811D1124911D08957B
:1006B000991B79E004C0991F961708F0961B881FB4
:1006C0007A95C9F780950895EE0FFF1F0590F49174
:0806D000E02D0994F894FFCF1E
:107E0000112484B714BE81FFF0D085E080938100F7
:107E100082E08093C00088E18093C10086E0809377
:107E2000C20080E18093C4008EE0C9D0259A86E02C
:107E300020E33CEF91E0309385002093840096BBD3
:107E4000B09BFECF1D9AA8958150A9F7CC24DD24C4
:107E500088248394B5E0AB2EA1E19A2EF3E0BF2EE7
:107E6000A2D0813461F49FD0082FAFD0023811F036
:107E7000013811F484E001C083E08DD089C08234E0
:107E800011F484E103C0853419F485E0A6D080C0E4
:107E9000853579F488D0E82EFF2485D0082F10E0AE
:107EA000102F00270E291F29000F111F8ED06801E7
:107EB0006FC0863521F484E090D080E0DECF843638
:107EC00009F040C070D06FD0082F6DD080E0C81688
:107ED00080E7D80618F4F601B7BEE895C0E0D1E017
:107EE00062D089930C17E1F7F0E0CF16F0E7DF06D8
:107EF00018F0F601B7BEE89568D007B600FCFDCFD4
:107F0000A601A0E0B1E02C9130E011968C91119780
:107F100090E0982F8827822B932B1296FA010C0160
:107F200087BEE89511244E5F5F4FF1E0A038BF0790
:107F300051F7F601A7BEE89507B600FCFDCF97BE46
:107F4000E89526C08437B1F42ED02DD0F82E2BD052
:107F50003CD0F601EF2C8F010F5F1F4F84911BD097
:107F6000EA94F801C1F70894C11CD11CFA94CF0C13
:107F7000D11C0EC0853739F428D08EE10CD085E9AC
:107F80000AD08FE07ACF813511F488E018D01DD067
:107F900080E101D065CF982F8091C00085FFFCCF94
:107FA0009093C60008958091C00087FFFCCF809118
:107FB000C00084FD01C0A8958091C6000895E0E648
:107FC000F0E098E1908380830895EDDF803219F02E
:107FD00088E0F5DFFFCF84E1DECF1F93182FE3DFCA
:107FE0001150E9F7F2DF1F91089580E0E8DFEE27F6
:047FF000FF270994CA
:027FFE00040479
:00000001FF
